:1000000003308A004A2B0000FF00030E8301A10089
:100010007F08A0000A08A7008A01A00E0408A20019
:100020007708A3007808A4007908A5007A08A6003C
:10003000831383128C308400801E20288C1A77282A
:10004000220884002308F7002408F8002508F90096
:100050002608FA0027088A00210E8300FF0E7F0E73
:10006000090083163C08FA003B08840083137A18C1
:1000700083170008BF003E08FA003D088400831380
:100080007A18831700083F02031D5D283C08FA0018
:100090003B08840083137A1883178008031D5328B4
:1000A0000030F80075283C08FA003B08BB0A031929
:1000B000BC0ABD0A0319BE0A32283C08FA003B08F4
:1000C000840083133C1883170008BF003E08FA0021
:1000D0003D08840083133E18831700083F0203186D
:1000E0007328FF3074280130F80083120800B10132
:1000F000B2013130840083138403840A8C1E7E286D
:100100001808A8001A08F800A81C88281812181641
:10011000780880000D300002031D7D2880013130F9
:10012000B400B5013230B600B7013330B800B901C0
:100130003430BA00BB013530BC00BD013630BE00E2
:10014000BF013730C000C1013830C200C3013930AF
:10015000C400C5013130C6003030C700C80131309D
:10016000C900CA00CB01CC003230CD00CE01313005
:10017000CF003330D000D1013130D2003430D30041
:10018000D4013130D5003530D600D7013130D80018
:100190003630D900DA013130DB003730DC00DD01E8
:1001A0003130DE003830DF00E0013130E10039303D
:1001B000E200E3013230E4003030E500E6013230A5
:1001C000E7003130E800E9013230EA00EB00EC01F1
:1001D000ED003330EE00EF013230F0003430F1004A
:1001E000F2013230F3003530F400F5013230FB001B
:1001F0003630FC00FD0132308316A0003730A100FC
:10020000A2013230A3003830A400A5013230A6008C
:100210003930A700A8013330A9003030AA00AB0163
:100220003330AC003130AD00AE013330AF0032308E
:10023000B000B1013330B200B300B401B5003430C6
:10024000B600B7013330B8003530B900BA01BC018F
:100250003130BB00BE013430BD0083123120F808BC
:10026000031D35290230AB06322B8316BC01313019
:10027000BB00BE013630BD0083123120F808031DDB
:1002800044290230AC06322B8316BC013130BB004E
:10029000BE013830BD0083123120F808031D5329F8
:1002A0000230AD06322B8316BC013130BB00BE01DB
:1002B0003A30BD0083123120F808031D6229023054
:1002C000AE06322B8316BC013130BB00BE013C3080
:1002D000BD0083123120F808031D71290230AF06DA
:1002E000322B8316BC013130BB00BE013E30BD0055
:1002F00083123120F808031D80290430AB06322B0D
:100300008316BC013130BB00BE014030BD008312FA
:100310003120F808031D8F290430AC06322B8316D8
:10032000BC013130BB00BE014230BD008312312020
:10033000F808031D9E290430AD06322B8316BC013C
:100340003130BB00BE014430BD0083123120F808BB
:10035000031DAD290430AE06322B8316BC013130AB
:10036000BB00BE014630BD0083123120F808031DDA
:10037000BC290430AF06322B8316BC013130BB00E0
:10038000BE014930BD0083123120F808031DCB297E
:100390000830AB06322B8316BC013130BB00BE01E6
:1003A0004C30BD0083123120F808031DDA290830D3
:1003B000AC06322B8316BC013130BB00BE014F307E
:1003C000BD0083123120F808031DE9290830AD066D
:1003D000322B8316BC013130BB00BE015230BD0050
:1003E00083123120F808031DF8290830AE06322B9D
:1003F0008316BC013130BB00BE015530BD008312F5
:100400003120F808031D072A0830AF06322B831667
:10041000BC013130BB00BE015830BD008312312019
:10042000F808031D162A1030AB06322B8316BC01C8
:100430003130BB00BE015B30BD0083123120F808B3
:10044000031D252A1030AC06322B8316BC01313037
:10045000BB00BE015E30BD0083123120F808031DD1
:10046000342A1030AD06322B8316BC013130BB006C
:10047000BE016130BD0083123120F808031D432AFC
:100480001030AE06322B8316BC013130BB00BE01EA
:100490006430BD0083123120F808031D522A103049
:1004A000AF06322B8316BC013130BB00BE01673072
:1004B000BD0083123120F808031D612A0130AB060C
:1004C000322B8316BC013130BB00BE016A30BD0047
:1004D00083123120F808031D702A0130AC06322B3C
:1004E0008316BC013130BB00BE016D30BD008312EC
:1004F0003120F808031D7F2A0130AD06322B831608
:10050000BC013130BB00BE017030BD008312312010
:10051000F808031D8E2A0130AE06322B8316BC016B
:100520003130BB00BE017330BD0083123120F808AA
:10053000031D9D2A0130AF06322B8316BC013130DA
:10054000BB00BE017B30BD0083123120F808031DC3
:10055000AC2A4030AB06322B8316BC013130BB00D5
:10056000BE01A030BD0083123120F808031DBB2A54
:100570004030AC06322B8316BC013130BB00BE01CB
:10058000A330BD0083123120F808031DCA2A403071
:10059000AD06322B8316BC013130BB00BE01A63044
:1005A000BD0083123120F808031DD92A4030AE0661
:1005B000322B8316BC013130BB00BE01A930BD0017
:1005C00083123120F808031DE82A4030AF06322B91
:1005D0008316BC013130BB00BE01AC30BD008312BC
:1005E0003120F808031DF72A8030AB06322B831622
:1005F000BC013130BB00BE01AF30BD0083123120E1
:10060000F808031D062B8030AC06322B8316BC0184
:100610003130BB00BE01B230BD0083123120F8087A
:10062000031D152B8030AD06322B8316BC013130F3
:10063000BB00BE01B530BD0083123120F808031D98
:10064000242B8030AE06322B8316BC013130BB0028
:10065000BE01B830BD0083123120F808031D322BD3
:100660008030AF068C128A1120283030840083132A
:1006700000080319492B0130F800F701F70B3E2B56
:10068000F80B3D2B4A30F700F70B442B472B800B20
:100690003B2B0800840183131F30830583168E15BE
:1006A00019309900A6309800903083129800FF30DE
:1006B000AB00FF30AC00FF30AD00FF30AE00FF30CC
:1006C000AF0007309F00A801A901AA0107309F00D1
:1006D0008316050885000330F700F70B6D2B831296
:1006E0001F080C1383169F018C16C03083128B04D5
:1006F0002030650003306600FE30850086015A30E8
:100700000C1E802B99002B088500083086000230D3
:10071000B00035232C088500103086000230B00070
:1007200035232D088500203086000230B0003523A7
:100730002E088500403086000230B00035232F0897
:100740008500803086000230B0003523832B6300A3
:02400E00183F59
:00000001FF
;PIC16F628A
;CRC=3813  CREATED="11-dic-12 18:36"
